{
	"contracts/lottery.sol": {
		"Lottery": {
			"abi": [
				{
					"inputs": [],
					"stateMutability": "nonpayable",
					"type": "constructor"
				},
				{
					"inputs": [],
					"name": "enter",
					"outputs": [],
					"stateMutability": "payable",
					"type": "function"
				},
				{
					"inputs": [],
					"name": "manager",
					"outputs": [
						{
							"internalType": "address",
							"name": "",
							"type": "address"
						}
					],
					"stateMutability": "view",
					"type": "function"
				},
				{
					"inputs": [],
					"name": "pickWinner",
					"outputs": [],
					"stateMutability": "nonpayable",
					"type": "function"
				},
				{
					"inputs": [
						{
							"internalType": "uint256",
							"name": "",
							"type": "uint256"
						}
					],
					"name": "players",
					"outputs": [
						{
							"internalType": "address payable",
							"name": "",
							"type": "address"
						}
					],
					"stateMutability": "view",
					"type": "function"
				},
				{
					"inputs": [],
					"name": "random",
					"outputs": [
						{
							"internalType": "uint256",
							"name": "",
							"type": "uint256"
						}
					],
					"stateMutability": "view",
					"type": "function"
				}
			],
			"devdoc": {
				"kind": "dev",
				"methods": {},
				"version": 1
			},
			"evm": {
				"assembly": "    /* \"contracts/lottery.sol\":61:995  contract Lottery {... */\n  mstore(0x40, 0x80)\n    /* \"contracts/lottery.sol\":155:209  constructor () {... */\n  callvalue\n  dup1\n  iszero\n  tag_1\n  jumpi\n  0x00\n  dup1\n  revert\ntag_1:\n  pop\n    /* \"contracts/lottery.sol\":191:201  msg.sender */\n  caller\n    /* \"contracts/lottery.sol\":181:188  manager */\n  0x00\n  dup1\n    /* \"contracts/lottery.sol\":181:201  manager = msg.sender */\n  0x0100\n  exp\n  dup2\n  sload\n  dup2\n  0xffffffffffffffffffffffffffffffffffffffff\n  mul\n  not\n  and\n  swap1\n  dup4\n  0xffffffffffffffffffffffffffffffffffffffff\n  and\n  mul\n  or\n  swap1\n  sstore\n  pop\n    /* \"contracts/lottery.sol\":61:995  contract Lottery {... */\n  dataSize(sub_0)\n  dup1\n  dataOffset(sub_0)\n  0x00\n  codecopy\n  0x00\n  return\nstop\n\nsub_0: assembly {\n        /* \"contracts/lottery.sol\":61:995  contract Lottery {... */\n      mstore(0x40, 0x80)\n      jumpi(tag_1, lt(calldatasize, 0x04))\n      shr(0xe0, calldataload(0x00))\n      dup1\n      0x481c6a75\n      eq\n      tag_2\n      jumpi\n      dup1\n      0x5d495aea\n      eq\n      tag_3\n      jumpi\n      dup1\n      0x5ec01e4d\n      eq\n      tag_4\n      jumpi\n      dup1\n      0xe97dcb62\n      eq\n      tag_5\n      jumpi\n      dup1\n      0xf71d96cb\n      eq\n      tag_6\n      jumpi\n    tag_1:\n      0x00\n      dup1\n      revert\n        /* \"contracts/lottery.sol\":85:107  address public manager */\n    tag_2:\n      callvalue\n      dup1\n      iszero\n      tag_7\n      jumpi\n      0x00\n      dup1\n      revert\n    tag_7:\n      pop\n      tag_8\n      tag_9\n      jump\t// in\n    tag_8:\n      mload(0x40)\n      tag_10\n      swap2\n      swap1\n      tag_11\n      jump\t// in\n    tag_10:\n      mload(0x40)\n      dup1\n      swap2\n      sub\n      swap1\n      return\n        /* \"contracts/lottery.sol\":617:895  function pickWinner() public manager_allowed{... */\n    tag_3:\n      callvalue\n      dup1\n      iszero\n      tag_12\n      jumpi\n      0x00\n      dup1\n      revert\n    tag_12:\n      pop\n      tag_13\n      tag_14\n      jump\t// in\n    tag_13:\n      stop\n        /* \"contracts/lottery.sol\":349:607  function random() public view returns (uint) {... */\n    tag_4:\n      callvalue\n      dup1\n      iszero\n      tag_15\n      jumpi\n      0x00\n      dup1\n      revert\n    tag_15:\n      pop\n      tag_16\n      tag_17\n      jump\t// in\n    tag_16:\n      mload(0x40)\n      tag_18\n      swap2\n      swap1\n      tag_19\n      jump\t// in\n    tag_18:\n      mload(0x40)\n      dup1\n      swap2\n      sub\n      swap1\n      return\n        /* \"contracts/lottery.sol\":217:343  function enter() public payable {... */\n    tag_5:\n      tag_20\n      tag_21\n      jump\t// in\n    tag_20:\n      stop\n        /* \"contracts/lottery.sol\":114:146  address payable[] public players */\n    tag_6:\n      callvalue\n      dup1\n      iszero\n      tag_22\n      jumpi\n      0x00\n      dup1\n      revert\n    tag_22:\n      pop\n      tag_23\n      0x04\n      dup1\n      calldatasize\n      sub\n      dup2\n      add\n      swap1\n      tag_24\n      swap2\n      swap1\n      tag_25\n      jump\t// in\n    tag_24:\n      tag_26\n      jump\t// in\n    tag_23:\n      mload(0x40)\n      tag_27\n      swap2\n      swap1\n      tag_28\n      jump\t// in\n    tag_27:\n      mload(0x40)\n      dup1\n      swap2\n      sub\n      swap1\n      return\n        /* \"contracts/lottery.sol\":85:107  address public manager */\n    tag_9:\n      0x00\n      dup1\n      sload\n      swap1\n      0x0100\n      exp\n      swap1\n      div\n      0xffffffffffffffffffffffffffffffffffffffff\n      and\n      dup2\n      jump\t// out\n        /* \"contracts/lottery.sol\":617:895  function pickWinner() public manager_allowed{... */\n    tag_14:\n        /* \"contracts/lottery.sol\":964:971  manager */\n      0x00\n      dup1\n      sload\n      swap1\n      0x0100\n      exp\n      swap1\n      div\n      0xffffffffffffffffffffffffffffffffffffffff\n      and\n        /* \"contracts/lottery.sol\":952:971  msg.sender==manager */\n      0xffffffffffffffffffffffffffffffffffffffff\n      and\n        /* \"contracts/lottery.sol\":952:962  msg.sender */\n      caller\n        /* \"contracts/lottery.sol\":952:971  msg.sender==manager */\n      0xffffffffffffffffffffffffffffffffffffffff\n      and\n      eq\n        /* \"contracts/lottery.sol\":944:972  require(msg.sender==manager) */\n      tag_30\n      jumpi\n      0x00\n      dup1\n      revert\n    tag_30:\n        /* \"contracts/lottery.sol\":707:708  0 */\n      0x00\n        /* \"contracts/lottery.sol\":690:697  players */\n      0x01\n        /* \"contracts/lottery.sol\":690:704  players.length */\n      dup1\n      sload\n      swap1\n      pop\n        /* \"contracts/lottery.sol\":690:708  players.length > 0 */\n      gt\n        /* \"contracts/lottery.sol\":682:709  require(players.length > 0) */\n      tag_32\n      jumpi\n      0x00\n      dup1\n      revert\n    tag_32:\n        /* \"contracts/lottery.sol\":720:730  uint index */\n      0x00\n        /* \"contracts/lottery.sol\":744:751  players */\n      0x01\n        /* \"contracts/lottery.sol\":744:758  players.length */\n      dup1\n      sload\n      swap1\n      pop\n        /* \"contracts/lottery.sol\":733:741  random() */\n      tag_33\n        /* \"contracts/lottery.sol\":733:739  random */\n      tag_17\n        /* \"contracts/lottery.sol\":733:741  random() */\n      jump\t// in\n    tag_33:\n        /* \"contracts/lottery.sol\":733:758  random() % players.length */\n      tag_34\n      swap2\n      swap1\n      tag_35\n      jump\t// in\n    tag_34:\n        /* \"contracts/lottery.sol\":720:758  uint index = random() % players.length */\n      swap1\n      pop\n        /* \"contracts/lottery.sol\":769:776  players */\n      0x01\n        /* \"contracts/lottery.sol\":777:782  index */\n      dup2\n        /* \"contracts/lottery.sol\":769:783  players[index] */\n      dup2\n      sload\n      dup2\n      lt\n      tag_36\n      jumpi\n      tag_37\n      tag_38\n      jump\t// in\n    tag_37:\n    tag_36:\n      swap1\n      0x00\n      mstore\n      keccak256(0x00, 0x20)\n      add\n      0x00\n      swap1\n      sload\n      swap1\n      0x0100\n      exp\n      swap1\n      div\n      0xffffffffffffffffffffffffffffffffffffffff\n      and\n        /* \"contracts/lottery.sol\":769:792  players[index].transfer */\n      0xffffffffffffffffffffffffffffffffffffffff\n      and\n        /* \"contracts/lottery.sol\":769:815  players[index].transfer(address(this).balance) */\n      0x08fc\n        /* \"contracts/lottery.sol\":793:814  address(this).balance */\n      selfbalance\n        /* \"contracts/lottery.sol\":769:815  players[index].transfer(address(this).balance) */\n      swap1\n      dup2\n      iszero\n      mul\n      swap1\n      mload(0x40)\n      0x00\n      mload(0x40)\n      dup1\n      dup4\n      sub\n      dup2\n      dup6\n      dup9\n      dup9\n      call\n      swap4\n      pop\n      pop\n      pop\n      pop\n      iszero\n      dup1\n      iszero\n      tag_41\n      jumpi\n      returndatasize\n      0x00\n      dup1\n      returndatacopy\n      revert(0x00, returndatasize)\n    tag_41:\n      pop\n        /* \"contracts/lottery.sol\":859:860  0 */\n      0x00\n        /* \"contracts/lottery.sol\":836:861  new address payable [](0) */\n      0xffffffffffffffff\n      dup2\n      gt\n      iszero\n      tag_42\n      jumpi\n      tag_43\n      tag_44\n      jump\t// in\n    tag_43:\n    tag_42:\n      mload(0x40)\n      swap1\n      dup1\n      dup3\n      mstore\n      dup1\n      0x20\n      mul\n      0x20\n      add\n      dup3\n      add\n      0x40\n      mstore\n      dup1\n      iszero\n      tag_45\n      jumpi\n      dup2\n      0x20\n      add\n      0x20\n      dup3\n      mul\n      dup1\n      calldatasize\n      dup4\n      calldatacopy\n      dup1\n      dup3\n      add\n      swap2\n      pop\n      pop\n      swap1\n      pop\n    tag_45:\n      pop\n        /* \"contracts/lottery.sol\":826:833  players */\n      0x01\n        /* \"contracts/lottery.sol\":826:861  players = new address payable [](0) */\n      swap1\n      dup1\n      mload\n      swap1\n      0x20\n      add\n      swap1\n      tag_46\n      swap3\n      swap2\n      swap1\n      tag_47\n      jump\t// in\n    tag_46:\n      pop\n        /* \"contracts/lottery.sol\":661:895  {... */\n      pop\n        /* \"contracts/lottery.sol\":617:895  function pickWinner() public manager_allowed{... */\n      jump\t// out\n        /* \"contracts/lottery.sol\":349:607  function random() public view returns (uint) {... */\n    tag_17:\n        /* \"contracts/lottery.sol\":388:392  uint */\n      0x00\n        /* \"contracts/lottery.sol\":405:421  uint blockNumber */\n      dup1\n        /* \"contracts/lottery.sol\":439:440  1 */\n      0x01\n        /* \"contracts/lottery.sol\":424:436  block.number */\n      number\n        /* \"contracts/lottery.sol\":424:440  block.number - 1 */\n      tag_49\n      swap2\n      swap1\n      tag_50\n      jump\t// in\n    tag_49:\n        /* \"contracts/lottery.sol\":405:440  uint blockNumber = block.number - 1 */\n      swap1\n      pop\n        /* \"contracts/lottery.sol\":451:468  bytes32 blockHash */\n      0x00\n        /* \"contracts/lottery.sol\":481:492  blockNumber */\n      dup2\n        /* \"contracts/lottery.sol\":471:493  blockhash(blockNumber) */\n      blockhash\n        /* \"contracts/lottery.sol\":451:493  bytes32 blockHash = blockhash(blockNumber) */\n      swap1\n      pop\n        /* \"contracts/lottery.sol\":543:552  blockHash */\n      dup1\n        /* \"contracts/lottery.sol\":554:561  players */\n      0x01\n        /* \"contracts/lottery.sol\":563:578  block.timestamp */\n      timestamp\n        /* \"contracts/lottery.sol\":580:596  block.prevrandao */\n      prevrandao\n        /* \"contracts/lottery.sol\":526:597  abi.encodePacked(blockHash, players, block.timestamp, block.prevrandao) */\n      add(0x20, mload(0x40))\n      tag_51\n      swap5\n      swap4\n      swap3\n      swap2\n      swap1\n      tag_52\n      jump\t// in\n    tag_51:\n      mload(0x40)\n      0x20\n      dup2\n      dup4\n      sub\n      sub\n      dup2\n      mstore\n      swap1\n      0x40\n      mstore\n        /* \"contracts/lottery.sol\":516:598  keccak256(abi.encodePacked(blockHash, players, block.timestamp, block.prevrandao)) */\n      dup1\n      mload\n      swap1\n      0x20\n      add\n      keccak256\n        /* \"contracts/lottery.sol\":511:599  uint(keccak256(abi.encodePacked(blockHash, players, block.timestamp, block.prevrandao))) */\n      0x00\n      shr\n        /* \"contracts/lottery.sol\":504:599  return uint(keccak256(abi.encodePacked(blockHash, players, block.timestamp, block.prevrandao))) */\n      swap3\n      pop\n      pop\n      pop\n        /* \"contracts/lottery.sol\":349:607  function random() public view returns (uint) {... */\n      swap1\n      jump\t// out\n        /* \"contracts/lottery.sol\":217:343  function enter() public payable {... */\n    tag_21:\n        /* \"contracts/lottery.sol\":281:290  0.1 ether */\n      0x016345785d8a0000\n        /* \"contracts/lottery.sol\":268:277  msg.value */\n      callvalue\n        /* \"contracts/lottery.sol\":268:290  msg.value >= 0.1 ether */\n      lt\n      iszero\n        /* \"contracts/lottery.sol\":260:291  require(msg.value >= 0.1 ether) */\n      tag_54\n      jumpi\n      0x00\n      dup1\n      revert\n    tag_54:\n        /* \"contracts/lottery.sol\":302:309  players */\n      0x01\n        /* \"contracts/lottery.sol\":323:333  msg.sender */\n      caller\n        /* \"contracts/lottery.sol\":302:335  players.push(payable(msg.sender)) */\n      swap1\n      dup1\n      0x01\n      dup2\n      sload\n      add\n      dup1\n      dup3\n      sstore\n      dup1\n      swap2\n      pop\n      pop\n      0x01\n      swap1\n      sub\n      swap1\n      0x00\n      mstore\n      keccak256(0x00, 0x20)\n      add\n      0x00\n      swap1\n      swap2\n      swap1\n      swap2\n      swap1\n      swap2\n      0x0100\n      exp\n      dup2\n      sload\n      dup2\n      0xffffffffffffffffffffffffffffffffffffffff\n      mul\n      not\n      and\n      swap1\n      dup4\n      0xffffffffffffffffffffffffffffffffffffffff\n      and\n      mul\n      or\n      swap1\n      sstore\n      pop\n        /* \"contracts/lottery.sol\":217:343  function enter() public payable {... */\n      jump\t// out\n        /* \"contracts/lottery.sol\":114:146  address payable[] public players */\n    tag_26:\n      0x01\n      dup2\n      dup2\n      sload\n      dup2\n      lt\n      tag_56\n      jumpi\n      0x00\n      dup1\n      revert\n    tag_56:\n      swap1\n      0x00\n      mstore\n      keccak256(0x00, 0x20)\n      add\n      0x00\n      swap2\n      pop\n      sload\n      swap1\n      0x0100\n      exp\n      swap1\n      div\n      0xffffffffffffffffffffffffffffffffffffffff\n      and\n      dup2\n      jump\t// out\n    tag_47:\n      dup3\n      dup1\n      sload\n      dup3\n      dup3\n      sstore\n      swap1\n      0x00\n      mstore\n      keccak256(0x00, 0x20)\n      swap1\n      dup2\n      add\n      swap3\n      dup3\n      iszero\n      tag_58\n      jumpi\n      swap2\n      0x20\n      mul\n      dup3\n      add\n    tag_59:\n      dup3\n      dup2\n      gt\n      iszero\n      tag_60\n      jumpi\n      dup3\n      mload\n      dup3\n      exp(0x0100, 0x00)\n      dup2\n      sload\n      dup2\n      0xffffffffffffffffffffffffffffffffffffffff\n      mul\n      not\n      and\n      swap1\n      dup4\n      0xffffffffffffffffffffffffffffffffffffffff\n      and\n      mul\n      or\n      swap1\n      sstore\n      pop\n      swap2\n      0x20\n      add\n      swap2\n      swap1\n      0x01\n      add\n      swap1\n      jump(tag_59)\n    tag_60:\n    tag_58:\n      pop\n      swap1\n      pop\n      tag_61\n      swap2\n      swap1\n      tag_62\n      jump\t// in\n    tag_61:\n      pop\n      swap1\n      jump\t// out\n    tag_62:\n    tag_63:\n      dup1\n      dup3\n      gt\n      iszero\n      tag_64\n      jumpi\n      0x00\n      dup2\n      0x00\n      swap1\n      sstore\n      pop\n      0x01\n      add\n      jump(tag_63)\n    tag_64:\n      pop\n      swap1\n      jump\t// out\n        /* \"#utility.yul\":7:133   */\n    tag_65:\n        /* \"#utility.yul\":44:51   */\n      0x00\n        /* \"#utility.yul\":84:126   */\n      0xffffffffffffffffffffffffffffffffffffffff\n        /* \"#utility.yul\":77:82   */\n      dup3\n        /* \"#utility.yul\":73:127   */\n      and\n        /* \"#utility.yul\":62:127   */\n      swap1\n      pop\n        /* \"#utility.yul\":7:133   */\n      swap2\n      swap1\n      pop\n      jump\t// out\n        /* \"#utility.yul\":139:235   */\n    tag_66:\n        /* \"#utility.yul\":176:183   */\n      0x00\n        /* \"#utility.yul\":205:229   */\n      tag_98\n        /* \"#utility.yul\":223:228   */\n      dup3\n        /* \"#utility.yul\":205:229   */\n      tag_65\n      jump\t// in\n    tag_98:\n        /* \"#utility.yul\":194:229   */\n      swap1\n      pop\n        /* \"#utility.yul\":139:235   */\n      swap2\n      swap1\n      pop\n      jump\t// out\n        /* \"#utility.yul\":241:359   */\n    tag_67:\n        /* \"#utility.yul\":328:352   */\n      tag_100\n        /* \"#utility.yul\":346:351   */\n      dup2\n        /* \"#utility.yul\":328:352   */\n      tag_66\n      jump\t// in\n    tag_100:\n        /* \"#utility.yul\":323:326   */\n      dup3\n        /* \"#utility.yul\":316:353   */\n      mstore\n        /* \"#utility.yul\":241:359   */\n      pop\n      pop\n      jump\t// out\n        /* \"#utility.yul\":365:587   */\n    tag_11:\n        /* \"#utility.yul\":458:462   */\n      0x00\n        /* \"#utility.yul\":496:498   */\n      0x20\n        /* \"#utility.yul\":485:494   */\n      dup3\n        /* \"#utility.yul\":481:499   */\n      add\n        /* \"#utility.yul\":473:499   */\n      swap1\n      pop\n        /* \"#utility.yul\":509:580   */\n      tag_102\n        /* \"#utility.yul\":577:578   */\n      0x00\n        /* \"#utility.yul\":566:575   */\n      dup4\n        /* \"#utility.yul\":562:579   */\n      add\n        /* \"#utility.yul\":553:559   */\n      dup5\n        /* \"#utility.yul\":509:580   */\n      tag_67\n      jump\t// in\n    tag_102:\n        /* \"#utility.yul\":365:587   */\n      swap3\n      swap2\n      pop\n      pop\n      jump\t// out\n        /* \"#utility.yul\":593:670   */\n    tag_68:\n        /* \"#utility.yul\":630:637   */\n      0x00\n        /* \"#utility.yul\":659:664   */\n      dup2\n        /* \"#utility.yul\":648:664   */\n      swap1\n      pop\n        /* \"#utility.yul\":593:670   */\n      swap2\n      swap1\n      pop\n      jump\t// out\n        /* \"#utility.yul\":676:794   */\n    tag_69:\n        /* \"#utility.yul\":763:787   */\n      tag_105\n        /* \"#utility.yul\":781:786   */\n      dup2\n        /* \"#utility.yul\":763:787   */\n      tag_68\n      jump\t// in\n    tag_105:\n        /* \"#utility.yul\":758:761   */\n      dup3\n        /* \"#utility.yul\":751:788   */\n      mstore\n        /* \"#utility.yul\":676:794   */\n      pop\n      pop\n      jump\t// out\n        /* \"#utility.yul\":800:1022   */\n    tag_19:\n        /* \"#utility.yul\":893:897   */\n      0x00\n        /* \"#utility.yul\":931:933   */\n      0x20\n        /* \"#utility.yul\":920:929   */\n      dup3\n        /* \"#utility.yul\":916:934   */\n      add\n        /* \"#utility.yul\":908:934   */\n      swap1\n      pop\n        /* \"#utility.yul\":944:1015   */\n      tag_107\n        /* \"#utility.yul\":1012:1013   */\n      0x00\n        /* \"#utility.yul\":1001:1010   */\n      dup4\n        /* \"#utility.yul\":997:1014   */\n      add\n        /* \"#utility.yul\":988:994   */\n      dup5\n        /* \"#utility.yul\":944:1015   */\n      tag_69\n      jump\t// in\n    tag_107:\n        /* \"#utility.yul\":800:1022   */\n      swap3\n      swap2\n      pop\n      pop\n      jump\t// out\n        /* \"#utility.yul\":1109:1226   */\n    tag_71:\n        /* \"#utility.yul\":1218:1219   */\n      0x00\n        /* \"#utility.yul\":1215:1216   */\n      dup1\n        /* \"#utility.yul\":1208:1220   */\n      revert\n        /* \"#utility.yul\":1355:1477   */\n    tag_73:\n        /* \"#utility.yul\":1428:1452   */\n      tag_112\n        /* \"#utility.yul\":1446:1451   */\n      dup2\n        /* \"#utility.yul\":1428:1452   */\n      tag_68\n      jump\t// in\n    tag_112:\n        /* \"#utility.yul\":1421:1426   */\n      dup2\n        /* \"#utility.yul\":1418:1453   */\n      eq\n        /* \"#utility.yul\":1408:1471   */\n      tag_113\n      jumpi\n        /* \"#utility.yul\":1467:1468   */\n      0x00\n        /* \"#utility.yul\":1464:1465   */\n      dup1\n        /* \"#utility.yul\":1457:1469   */\n      revert\n        /* \"#utility.yul\":1408:1471   */\n    tag_113:\n        /* \"#utility.yul\":1355:1477   */\n      pop\n      jump\t// out\n        /* \"#utility.yul\":1483:1622   */\n    tag_74:\n        /* \"#utility.yul\":1529:1534   */\n      0x00\n        /* \"#utility.yul\":1567:1573   */\n      dup2\n        /* \"#utility.yul\":1554:1574   */\n      calldataload\n        /* \"#utility.yul\":1545:1574   */\n      swap1\n      pop\n        /* \"#utility.yul\":1583:1616   */\n      tag_115\n        /* \"#utility.yul\":1610:1615   */\n      dup2\n        /* \"#utility.yul\":1583:1616   */\n      tag_73\n      jump\t// in\n    tag_115:\n        /* \"#utility.yul\":1483:1622   */\n      swap3\n      swap2\n      pop\n      pop\n      jump\t// out\n        /* \"#utility.yul\":1628:1957   */\n    tag_25:\n        /* \"#utility.yul\":1687:1693   */\n      0x00\n        /* \"#utility.yul\":1736:1738   */\n      0x20\n        /* \"#utility.yul\":1724:1733   */\n      dup3\n        /* \"#utility.yul\":1715:1722   */\n      dup5\n        /* \"#utility.yul\":1711:1734   */\n      sub\n        /* \"#utility.yul\":1707:1739   */\n      slt\n        /* \"#utility.yul\":1704:1823   */\n      iszero\n      tag_117\n      jumpi\n        /* \"#utility.yul\":1742:1821   */\n      tag_118\n      tag_71\n      jump\t// in\n    tag_118:\n        /* \"#utility.yul\":1704:1823   */\n    tag_117:\n        /* \"#utility.yul\":1862:1863   */\n      0x00\n        /* \"#utility.yul\":1887:1940   */\n      tag_119\n        /* \"#utility.yul\":1932:1939   */\n      dup5\n        /* \"#utility.yul\":1923:1929   */\n      dup3\n        /* \"#utility.yul\":1912:1921   */\n      dup6\n        /* \"#utility.yul\":1908:1930   */\n      add\n        /* \"#utility.yul\":1887:1940   */\n      tag_74\n      jump\t// in\n    tag_119:\n        /* \"#utility.yul\":1877:1940   */\n      swap2\n      pop\n        /* \"#utility.yul\":1833:1950   */\n      pop\n        /* \"#utility.yul\":1628:1957   */\n      swap3\n      swap2\n      pop\n      pop\n      jump\t// out\n        /* \"#utility.yul\":1963:2067   */\n    tag_75:\n        /* \"#utility.yul\":2008:2015   */\n      0x00\n        /* \"#utility.yul\":2037:2061   */\n      tag_121\n        /* \"#utility.yul\":2055:2060   */\n      dup3\n        /* \"#utility.yul\":2037:2061   */\n      tag_65\n      jump\t// in\n    tag_121:\n        /* \"#utility.yul\":2026:2061   */\n      swap1\n      pop\n        /* \"#utility.yul\":1963:2067   */\n      swap2\n      swap1\n      pop\n      jump\t// out\n        /* \"#utility.yul\":2073:2215   */\n    tag_76:\n        /* \"#utility.yul\":2176:2208   */\n      tag_123\n        /* \"#utility.yul\":2202:2207   */\n      dup2\n        /* \"#utility.yul\":2176:2208   */\n      tag_75\n      jump\t// in\n    tag_123:\n        /* \"#utility.yul\":2171:2174   */\n      dup3\n        /* \"#utility.yul\":2164:2209   */\n      mstore\n        /* \"#utility.yul\":2073:2215   */\n      pop\n      pop\n      jump\t// out\n        /* \"#utility.yul\":2221:2475   */\n    tag_28:\n        /* \"#utility.yul\":2330:2334   */\n      0x00\n        /* \"#utility.yul\":2368:2370   */\n      0x20\n        /* \"#utility.yul\":2357:2366   */\n      dup3\n        /* \"#utility.yul\":2353:2371   */\n      add\n        /* \"#utility.yul\":2345:2371   */\n      swap1\n      pop\n        /* \"#utility.yul\":2381:2468   */\n      tag_125\n        /* \"#utility.yul\":2465:2466   */\n      0x00\n        /* \"#utility.yul\":2454:2463   */\n      dup4\n        /* \"#utility.yul\":2450:2467   */\n      add\n        /* \"#utility.yul\":2441:2447   */\n      dup5\n        /* \"#utility.yul\":2381:2468   */\n      tag_76\n      jump\t// in\n    tag_125:\n        /* \"#utility.yul\":2221:2475   */\n      swap3\n      swap2\n      pop\n      pop\n      jump\t// out\n        /* \"#utility.yul\":2481:2661   */\n    tag_77:\n        /* \"#utility.yul\":2529:2606   */\n      0x4e487b7100000000000000000000000000000000000000000000000000000000\n        /* \"#utility.yul\":2526:2527   */\n      0x00\n        /* \"#utility.yul\":2519:2607   */\n      mstore\n        /* \"#utility.yul\":2626:2630   */\n      0x12\n        /* \"#utility.yul\":2623:2624   */\n      0x04\n        /* \"#utility.yul\":2616:2631   */\n      mstore\n        /* \"#utility.yul\":2650:2654   */\n      0x24\n        /* \"#utility.yul\":2647:2648   */\n      0x00\n        /* \"#utility.yul\":2640:2655   */\n      revert\n        /* \"#utility.yul\":2667:2843   */\n    tag_35:\n        /* \"#utility.yul\":2699:2700   */\n      0x00\n        /* \"#utility.yul\":2716:2736   */\n      tag_128\n        /* \"#utility.yul\":2734:2735   */\n      dup3\n        /* \"#utility.yul\":2716:2736   */\n      tag_68\n      jump\t// in\n    tag_128:\n        /* \"#utility.yul\":2711:2736   */\n      swap2\n      pop\n        /* \"#utility.yul\":2750:2770   */\n      tag_129\n        /* \"#utility.yul\":2768:2769   */\n      dup4\n        /* \"#utility.yul\":2750:2770   */\n      tag_68\n      jump\t// in\n    tag_129:\n        /* \"#utility.yul\":2745:2770   */\n      swap3\n      pop\n        /* \"#utility.yul\":2789:2790   */\n      dup3\n        /* \"#utility.yul\":2779:2814   */\n      tag_130\n      jumpi\n        /* \"#utility.yul\":2794:2812   */\n      tag_131\n      tag_77\n      jump\t// in\n    tag_131:\n        /* \"#utility.yul\":2779:2814   */\n    tag_130:\n        /* \"#utility.yul\":2835:2836   */\n      dup3\n        /* \"#utility.yul\":2832:2833   */\n      dup3\n        /* \"#utility.yul\":2828:2837   */\n      mod\n        /* \"#utility.yul\":2823:2837   */\n      swap1\n      pop\n        /* \"#utility.yul\":2667:2843   */\n      swap3\n      swap2\n      pop\n      pop\n      jump\t// out\n        /* \"#utility.yul\":2849:3029   */\n    tag_38:\n        /* \"#utility.yul\":2897:2974   */\n      0x4e487b7100000000000000000000000000000000000000000000000000000000\n        /* \"#utility.yul\":2894:2895   */\n      0x00\n        /* \"#utility.yul\":2887:2975   */\n      mstore\n        /* \"#utility.yul\":2994:2998   */\n      0x32\n        /* \"#utility.yul\":2991:2992   */\n      0x04\n        /* \"#utility.yul\":2984:2999   */\n      mstore\n        /* \"#utility.yul\":3018:3022   */\n      0x24\n        /* \"#utility.yul\":3015:3016   */\n      0x00\n        /* \"#utility.yul\":3008:3023   */\n      revert\n        /* \"#utility.yul\":3035:3215   */\n    tag_44:\n        /* \"#utility.yul\":3083:3160   */\n      0x4e487b7100000000000000000000000000000000000000000000000000000000\n        /* \"#utility.yul\":3080:3081   */\n      0x00\n        /* \"#utility.yul\":3073:3161   */\n      mstore\n        /* \"#utility.yul\":3180:3184   */\n      0x41\n        /* \"#utility.yul\":3177:3178   */\n      0x04\n        /* \"#utility.yul\":3170:3185   */\n      mstore\n        /* \"#utility.yul\":3204:3208   */\n      0x24\n        /* \"#utility.yul\":3201:3202   */\n      0x00\n        /* \"#utility.yul\":3194:3209   */\n      revert\n        /* \"#utility.yul\":3221:3401   */\n    tag_78:\n        /* \"#utility.yul\":3269:3346   */\n      0x4e487b7100000000000000000000000000000000000000000000000000000000\n        /* \"#utility.yul\":3266:3267   */\n      0x00\n        /* \"#utility.yul\":3259:3347   */\n      mstore\n        /* \"#utility.yul\":3366:3370   */\n      0x11\n        /* \"#utility.yul\":3363:3364   */\n      0x04\n        /* \"#utility.yul\":3356:3371   */\n      mstore\n        /* \"#utility.yul\":3390:3394   */\n      0x24\n        /* \"#utility.yul\":3387:3388   */\n      0x00\n        /* \"#utility.yul\":3380:3395   */\n      revert\n        /* \"#utility.yul\":3407:3601   */\n    tag_50:\n        /* \"#utility.yul\":3447:3451   */\n      0x00\n        /* \"#utility.yul\":3467:3487   */\n      tag_136\n        /* \"#utility.yul\":3485:3486   */\n      dup3\n        /* \"#utility.yul\":3467:3487   */\n      tag_68\n      jump\t// in\n    tag_136:\n        /* \"#utility.yul\":3462:3487   */\n      swap2\n      pop\n        /* \"#utility.yul\":3501:3521   */\n      tag_137\n        /* \"#utility.yul\":3519:3520   */\n      dup4\n        /* \"#utility.yul\":3501:3521   */\n      tag_68\n      jump\t// in\n    tag_137:\n        /* \"#utility.yul\":3496:3521   */\n      swap3\n      pop\n        /* \"#utility.yul\":3545:3546   */\n      dup3\n        /* \"#utility.yul\":3542:3543   */\n      dup3\n        /* \"#utility.yul\":3538:3547   */\n      sub\n        /* \"#utility.yul\":3530:3547   */\n      swap1\n      pop\n        /* \"#utility.yul\":3569:3570   */\n      dup2\n        /* \"#utility.yul\":3563:3567   */\n      dup2\n        /* \"#utility.yul\":3560:3571   */\n      gt\n        /* \"#utility.yul\":3557:3594   */\n      iszero\n      tag_138\n      jumpi\n        /* \"#utility.yul\":3574:3592   */\n      tag_139\n      tag_78\n      jump\t// in\n    tag_139:\n        /* \"#utility.yul\":3557:3594   */\n    tag_138:\n        /* \"#utility.yul\":3407:3601   */\n      swap3\n      swap2\n      pop\n      pop\n      jump\t// out\n        /* \"#utility.yul\":3607:3684   */\n    tag_79:\n        /* \"#utility.yul\":3644:3651   */\n      0x00\n        /* \"#utility.yul\":3673:3678   */\n      dup2\n        /* \"#utility.yul\":3662:3678   */\n      swap1\n      pop\n        /* \"#utility.yul\":3607:3684   */\n      swap2\n      swap1\n      pop\n      jump\t// out\n        /* \"#utility.yul\":3690:3769   */\n    tag_80:\n        /* \"#utility.yul\":3729:3736   */\n      0x00\n        /* \"#utility.yul\":3758:3763   */\n      dup2\n        /* \"#utility.yul\":3747:3763   */\n      swap1\n      pop\n        /* \"#utility.yul\":3690:3769   */\n      swap2\n      swap1\n      pop\n      jump\t// out\n        /* \"#utility.yul\":3775:3932   */\n    tag_81:\n        /* \"#utility.yul\":3880:3925   */\n      tag_143\n        /* \"#utility.yul\":3900:3924   */\n      tag_144\n        /* \"#utility.yul\":3918:3923   */\n      dup3\n        /* \"#utility.yul\":3900:3924   */\n      tag_79\n      jump\t// in\n    tag_144:\n        /* \"#utility.yul\":3880:3925   */\n      tag_80\n      jump\t// in\n    tag_143:\n        /* \"#utility.yul\":3875:3878   */\n      dup3\n        /* \"#utility.yul\":3868:3926   */\n      mstore\n        /* \"#utility.yul\":3775:3932   */\n      pop\n      pop\n      jump\t// out\n        /* \"#utility.yul\":3938:4057   */\n    tag_82:\n        /* \"#utility.yul\":4010:4016   */\n      0x00\n        /* \"#utility.yul\":4044:4049   */\n      dup2\n        /* \"#utility.yul\":4038:4050   */\n      sload\n        /* \"#utility.yul\":4028:4050   */\n      swap1\n      pop\n        /* \"#utility.yul\":3938:4057   */\n      swap2\n      swap1\n      pop\n      jump\t// out\n        /* \"#utility.yul\":4063:4234   */\n    tag_83:\n        /* \"#utility.yul\":4188:4199   */\n      0x00\n        /* \"#utility.yul\":4225:4228   */\n      dup2\n        /* \"#utility.yul\":4210:4228   */\n      swap1\n      pop\n        /* \"#utility.yul\":4063:4234   */\n      swap3\n      swap2\n      pop\n      pop\n      jump\t// out\n        /* \"#utility.yul\":4240:4404   */\n    tag_84:\n        /* \"#utility.yul\":4312:4316   */\n      0x00\n        /* \"#utility.yul\":4335:4338   */\n      dup2\n        /* \"#utility.yul\":4327:4338   */\n      swap1\n      pop\n        /* \"#utility.yul\":4358:4361   */\n      dup2\n        /* \"#utility.yul\":4355:4356   */\n      0x00\n        /* \"#utility.yul\":4348:4362   */\n      mstore\n        /* \"#utility.yul\":4392:4396   */\n      0x20\n        /* \"#utility.yul\":4389:4390   */\n      0x00\n        /* \"#utility.yul\":4379:4397   */\n      keccak256\n        /* \"#utility.yul\":4371:4397   */\n      swap1\n      pop\n        /* \"#utility.yul\":4240:4404   */\n      swap2\n      swap1\n      pop\n      jump\t// out\n        /* \"#utility.yul\":4410:4550   */\n    tag_85:\n        /* \"#utility.yul\":4511:4543   */\n      tag_149\n        /* \"#utility.yul\":4537:4542   */\n      dup2\n        /* \"#utility.yul\":4511:4543   */\n      tag_75\n      jump\t// in\n    tag_149:\n        /* \"#utility.yul\":4506:4509   */\n      dup3\n        /* \"#utility.yul\":4499:4544   */\n      mstore\n        /* \"#utility.yul\":4410:4550   */\n      pop\n      pop\n      jump\t// out\n        /* \"#utility.yul\":4556:4783   */\n    tag_86:\n        /* \"#utility.yul\":4649:4659   */\n      0x00\n        /* \"#utility.yul\":4670:4740   */\n      tag_151\n        /* \"#utility.yul\":4736:4739   */\n      dup4\n        /* \"#utility.yul\":4728:4734   */\n      dup4\n        /* \"#utility.yul\":4670:4740   */\n      tag_85\n      jump\t// in\n    tag_151:\n        /* \"#utility.yul\":4772:4776   */\n      0x20\n        /* \"#utility.yul\":4767:4770   */\n      dup4\n        /* \"#utility.yul\":4763:4777   */\n      add\n        /* \"#utility.yul\":4749:4777   */\n      swap1\n      pop\n        /* \"#utility.yul\":4556:4783   */\n      swap3\n      swap2\n      pop\n      pop\n      jump\t// out\n        /* \"#utility.yul\":4789:4891   */\n    tag_87:\n        /* \"#utility.yul\":4831:4839   */\n      0x00\n        /* \"#utility.yul\":4878:4883   */\n      dup2\n        /* \"#utility.yul\":4875:4876   */\n      0x00\n        /* \"#utility.yul\":4871:4884   */\n      shr\n        /* \"#utility.yul\":4850:4884   */\n      swap1\n      pop\n        /* \"#utility.yul\":4789:4891   */\n      swap2\n      swap1\n      pop\n      jump\t// out\n        /* \"#utility.yul\":4897:5044   */\n    tag_88:\n        /* \"#utility.yul\":4955:4962   */\n      0x00\n        /* \"#utility.yul\":4995:5037   */\n      0xffffffffffffffffffffffffffffffffffffffff\n        /* \"#utility.yul\":4988:4993   */\n      dup3\n        /* \"#utility.yul\":4984:5038   */\n      and\n        /* \"#utility.yul\":4973:5038   */\n      swap1\n      pop\n        /* \"#utility.yul\":4897:5044   */\n      swap2\n      swap1\n      pop\n      jump\t// out\n        /* \"#utility.yul\":5050:5232   */\n    tag_89:\n        /* \"#utility.yul\":5127:5132   */\n      0x00\n        /* \"#utility.yul\":5152:5226   */\n      tag_155\n        /* \"#utility.yul\":5191:5225   */\n      tag_156\n        /* \"#utility.yul\":5214:5224   */\n      dup4\n        /* \"#utility.yul\":5191:5225   */\n      tag_87\n      jump\t// in\n    tag_156:\n        /* \"#utility.yul\":5152:5226   */\n      tag_88\n      jump\t// in\n    tag_155:\n        /* \"#utility.yul\":5143:5226   */\n      swap1\n      pop\n        /* \"#utility.yul\":5050:5232   */\n      swap2\n      swap1\n      pop\n      jump\t// out\n        /* \"#utility.yul\":5238:5398   */\n    tag_90:\n        /* \"#utility.yul\":5301:5306   */\n      0x00\n        /* \"#utility.yul\":5326:5391   */\n      tag_158\n        /* \"#utility.yul\":5385:5389   */\n      dup3\n        /* \"#utility.yul\":5379:5390   */\n      sload\n        /* \"#utility.yul\":5326:5391   */\n      tag_89\n      jump\t// in\n    tag_158:\n        /* \"#utility.yul\":5317:5391   */\n      swap1\n      pop\n        /* \"#utility.yul\":5238:5398   */\n      swap2\n      swap1\n      pop\n      jump\t// out\n        /* \"#utility.yul\":5404:5522   */\n    tag_91:\n        /* \"#utility.yul\":5479:5483   */\n      0x00\n        /* \"#utility.yul\":5511:5515   */\n      0x01\n        /* \"#utility.yul\":5506:5509   */\n      dup3\n        /* \"#utility.yul\":5502:5516   */\n      add\n        /* \"#utility.yul\":5494:5516   */\n      swap1\n      pop\n        /* \"#utility.yul\":5404:5522   */\n      swap2\n      swap1\n      pop\n      jump\t// out\n        /* \"#utility.yul\":5574:6441   */\n    tag_92:\n        /* \"#utility.yul\":5724:5727   */\n      0x00\n        /* \"#utility.yul\":5753:5812   */\n      tag_161\n        /* \"#utility.yul\":5806:5811   */\n      dup3\n        /* \"#utility.yul\":5753:5812   */\n      tag_82\n      jump\t// in\n    tag_161:\n        /* \"#utility.yul\":5828:5940   */\n      tag_162\n        /* \"#utility.yul\":5933:5939   */\n      dup2\n        /* \"#utility.yul\":5928:5931   */\n      dup6\n        /* \"#utility.yul\":5828:5940   */\n      tag_83\n      jump\t// in\n    tag_162:\n        /* \"#utility.yul\":5821:5940   */\n      swap4\n      pop\n        /* \"#utility.yul\":5964:6025   */\n      tag_163\n        /* \"#utility.yul\":6019:6024   */\n      dup4\n        /* \"#utility.yul\":5964:6025   */\n      tag_84\n      jump\t// in\n    tag_163:\n        /* \"#utility.yul\":6048:6055   */\n      dup1\n        /* \"#utility.yul\":6079:6080   */\n      0x00\n        /* \"#utility.yul\":6064:6416   */\n    tag_164:\n        /* \"#utility.yul\":6089:6095   */\n      dup4\n        /* \"#utility.yul\":6086:6087   */\n      dup2\n        /* \"#utility.yul\":6083:6096   */\n      lt\n        /* \"#utility.yul\":6064:6416   */\n      iszero\n      tag_166\n      jumpi\n        /* \"#utility.yul\":6159:6211   */\n      tag_167\n        /* \"#utility.yul\":6204:6210   */\n      dup3\n        /* \"#utility.yul\":6159:6211   */\n      tag_90\n      jump\t// in\n    tag_167:\n        /* \"#utility.yul\":6231:6318   */\n      tag_168\n        /* \"#utility.yul\":6314:6317   */\n      dup9\n        /* \"#utility.yul\":6299:6312   */\n      dup3\n        /* \"#utility.yul\":6231:6318   */\n      tag_86\n      jump\t// in\n    tag_168:\n        /* \"#utility.yul\":6224:6318   */\n      swap8\n      pop\n        /* \"#utility.yul\":6341:6406   */\n      tag_169\n        /* \"#utility.yul\":6399:6405   */\n      dup4\n        /* \"#utility.yul\":6341:6406   */\n      tag_91\n      jump\t// in\n    tag_169:\n        /* \"#utility.yul\":6331:6406   */\n      swap3\n      pop\n        /* \"#utility.yul\":6124:6416   */\n      pop\n        /* \"#utility.yul\":6111:6112   */\n      0x01\n        /* \"#utility.yul\":6108:6109   */\n      dup2\n        /* \"#utility.yul\":6104:6113   */\n      add\n        /* \"#utility.yul\":6099:6113   */\n      swap1\n      pop\n        /* \"#utility.yul\":6064:6416   */\n      jump(tag_164)\n    tag_166:\n        /* \"#utility.yul\":6068:6082   */\n      pop\n        /* \"#utility.yul\":6432:6435   */\n      dup6\n        /* \"#utility.yul\":6425:6435   */\n      swap4\n      pop\n        /* \"#utility.yul\":5729:6441   */\n      pop\n      pop\n      pop\n        /* \"#utility.yul\":5574:6441   */\n      swap3\n      swap2\n      pop\n      pop\n      jump\t// out\n        /* \"#utility.yul\":6447:6526   */\n    tag_93:\n        /* \"#utility.yul\":6486:6493   */\n      0x00\n        /* \"#utility.yul\":6515:6520   */\n      dup2\n        /* \"#utility.yul\":6504:6520   */\n      swap1\n      pop\n        /* \"#utility.yul\":6447:6526   */\n      swap2\n      swap1\n      pop\n      jump\t// out\n        /* \"#utility.yul\":6532:6689   */\n    tag_94:\n        /* \"#utility.yul\":6637:6682   */\n      tag_172\n        /* \"#utility.yul\":6657:6681   */\n      tag_173\n        /* \"#utility.yul\":6675:6680   */\n      dup3\n        /* \"#utility.yul\":6657:6681   */\n      tag_68\n      jump\t// in\n    tag_173:\n        /* \"#utility.yul\":6637:6682   */\n      tag_93\n      jump\t// in\n    tag_172:\n        /* \"#utility.yul\":6632:6635   */\n      dup3\n        /* \"#utility.yul\":6625:6683   */\n      mstore\n        /* \"#utility.yul\":6532:6689   */\n      pop\n      pop\n      jump\t// out\n        /* \"#utility.yul\":6695:7479   */\n    tag_52:\n        /* \"#utility.yul\":6954:6957   */\n      0x00\n        /* \"#utility.yul\":6969:7044   */\n      tag_175\n        /* \"#utility.yul\":7040:7043   */\n      dup3\n        /* \"#utility.yul\":7031:7037   */\n      dup8\n        /* \"#utility.yul\":6969:7044   */\n      tag_81\n      jump\t// in\n    tag_175:\n        /* \"#utility.yul\":7069:7071   */\n      0x20\n        /* \"#utility.yul\":7064:7067   */\n      dup3\n        /* \"#utility.yul\":7060:7072   */\n      add\n        /* \"#utility.yul\":7053:7072   */\n      swap2\n      pop\n        /* \"#utility.yul\":7089:7227   */\n      tag_176\n        /* \"#utility.yul\":7223:7226   */\n      dup3\n        /* \"#utility.yul\":7214:7220   */\n      dup7\n        /* \"#utility.yul\":7089:7227   */\n      tag_92\n      jump\t// in\n    tag_176:\n        /* \"#utility.yul\":7082:7227   */\n      swap2\n      pop\n        /* \"#utility.yul\":7237:7312   */\n      tag_177\n        /* \"#utility.yul\":7308:7311   */\n      dup3\n        /* \"#utility.yul\":7299:7305   */\n      dup6\n        /* \"#utility.yul\":7237:7312   */\n      tag_94\n      jump\t// in\n    tag_177:\n        /* \"#utility.yul\":7337:7339   */\n      0x20\n        /* \"#utility.yul\":7332:7335   */\n      dup3\n        /* \"#utility.yul\":7328:7340   */\n      add\n        /* \"#utility.yul\":7321:7340   */\n      swap2\n      pop\n        /* \"#utility.yul\":7350:7425   */\n      tag_178\n        /* \"#utility.yul\":7421:7424   */\n      dup3\n        /* \"#utility.yul\":7412:7418   */\n      dup5\n        /* \"#utility.yul\":7350:7425   */\n      tag_94\n      jump\t// in\n    tag_178:\n        /* \"#utility.yul\":7450:7452   */\n      0x20\n        /* \"#utility.yul\":7445:7448   */\n      dup3\n        /* \"#utility.yul\":7441:7453   */\n      add\n        /* \"#utility.yul\":7434:7453   */\n      swap2\n      pop\n        /* \"#utility.yul\":7470:7473   */\n      dup2\n        /* \"#utility.yul\":7463:7473   */\n      swap1\n      pop\n        /* \"#utility.yul\":6695:7479   */\n      swap6\n      swap5\n      pop\n      pop\n      pop\n      pop\n      pop\n      jump\t// out\n\n    auxdata: 0xa26469706673582212208266534b4095acb17f4733dd8837be8364f20cf5519d6c299a3def48ea44445864736f6c63430008120033\n}\n",
				"bytecode": {
					"linkReferences": {},
					"object": "608060405234801561001057600080fd5b50336000806101000a81548173ffffffffffffffffffffffffffffffffffffffff021916908373ffffffffffffffffffffffffffffffffffffffff16021790555061087a806100606000396000f3fe60806040526004361061004a5760003560e01c8063481c6a751461004f5780635d495aea1461007a5780635ec01e4d14610091578063e97dcb62146100bc578063f71d96cb146100c6575b600080fd5b34801561005b57600080fd5b50610064610103565b6040516100719190610486565b60405180910390f35b34801561008657600080fd5b5061008f610127565b005b34801561009d57600080fd5b506100a6610295565b6040516100b391906104ba565b60405180910390f35b6100c46102e5565b005b3480156100d257600080fd5b506100ed60048036038101906100e89190610506565b61035f565b6040516100fa9190610554565b60405180910390f35b60008054906101000a900473ffffffffffffffffffffffffffffffffffffffff1681565b60008054906101000a900473ffffffffffffffffffffffffffffffffffffffff1673ffffffffffffffffffffffffffffffffffffffff163373ffffffffffffffffffffffffffffffffffffffff161461017f57600080fd5b60006001805490501161019157600080fd5b60006001805490506101a1610295565b6101ab919061059e565b9050600181815481106101c1576101c06105cf565b5b9060005260206000200160009054906101000a900473ffffffffffffffffffffffffffffffffffffffff1673ffffffffffffffffffffffffffffffffffffffff166108fc479081150290604051600060405180830381858888f19350505050158015610231573d6000803e3d6000fd5b50600067ffffffffffffffff81111561024d5761024c6105fe565b5b60405190808252806020026020018201604052801561027b5781602001602082028036833780820191505090505b506001908051906020019061029192919061039e565b5050565b6000806001436102a5919061065c565b905060008140905080600142446040516020016102c594939291906107fa565b6040516020818303038152906040528051906020012060001c9250505090565b67016345785d8a00003410156102fa57600080fd5b6001339080600181540180825580915050600190039060005260206000200160009091909190916101000a81548173ffffffffffffffffffffffffffffffffffffffff021916908373ffffffffffffffffffffffffffffffffffffffff160217905550565b6001818154811061036f57600080fd5b906000526020600020016000915054906101000a900473ffffffffffffffffffffffffffffffffffffffff1681565b828054828255906000526020600020908101928215610417579160200282015b828111156104165782518260006101000a81548173ffffffffffffffffffffffffffffffffffffffff021916908373ffffffffffffffffffffffffffffffffffffffff160217905550916020019190600101906103be565b5b5090506104249190610428565b5090565b5b80821115610441576000816000905550600101610429565b5090565b600073ffffffffffffffffffffffffffffffffffffffff82169050919050565b600061047082610445565b9050919050565b61048081610465565b82525050565b600060208201905061049b6000830184610477565b92915050565b6000819050919050565b6104b4816104a1565b82525050565b60006020820190506104cf60008301846104ab565b92915050565b600080fd5b6104e3816104a1565b81146104ee57600080fd5b50565b600081359050610500816104da565b92915050565b60006020828403121561051c5761051b6104d5565b5b600061052a848285016104f1565b91505092915050565b600061053e82610445565b9050919050565b61054e81610533565b82525050565b60006020820190506105696000830184610545565b92915050565b7f4e487b7100000000000000000000000000000000000000000000000000000000600052601260045260246000fd5b60006105a9826104a1565b91506105b4836104a1565b9250826105c4576105c361056f565b5b828206905092915050565b7f4e487b7100000000000000000000000000000000000000000000000000000000600052603260045260246000fd5b7f4e487b7100000000000000000000000000000000000000000000000000000000600052604160045260246000fd5b7f4e487b7100000000000000000000000000000000000000000000000000000000600052601160045260246000fd5b6000610667826104a1565b9150610672836104a1565b925082820390508181111561068a5761068961062d565b5b92915050565b6000819050919050565b6000819050919050565b6106b56106b082610690565b61069a565b82525050565b600081549050919050565b600081905092915050565b60008190508160005260206000209050919050565b6106ef81610533565b82525050565b600061070183836106e6565b60208301905092915050565b60008160001c9050919050565b600073ffffffffffffffffffffffffffffffffffffffff82169050919050565b600061074d6107488361070d565b61071a565b9050919050565b6000610760825461073a565b9050919050565b6000600182019050919050565b600061077f826106bb565b61078981856106c6565b9350610794836106d1565b8060005b838110156107cc576107a982610754565b6107b388826106f5565b97506107be83610767565b925050600181019050610798565b5085935050505092915050565b6000819050919050565b6107f46107ef826104a1565b6107d9565b82525050565b600061080682876106a4565b6020820191506108168286610774565b915061082282856107e3565b60208201915061083282846107e3565b6020820191508190509594505050505056fea26469706673582212208266534b4095acb17f4733dd8837be8364f20cf5519d6c299a3def48ea44445864736f6c63430008120033",
					"opcodes": "PUSH1 0x80 PUSH1 0x40 MSTORE CALLVALUE DUP1 ISZERO PUSH2 0x10 JUMPI PUSH1 0x0 DUP1 REVERT JUMPDEST POP CALLER PUSH1 0x0 DUP1 PUSH2 0x100 EXP DUP2 SLOAD DUP2 PUSH20 0xFFFFFFFFFFFFFFFFFFFFFFFFFFFFFFFFFFFFFFFF MUL NOT AND SWAP1 DUP4 PUSH20 0xFFFFFFFFFFFFFFFFFFFFFFFFFFFFFFFFFFFFFFFF AND MUL OR SWAP1 SSTORE POP PUSH2 0x87A DUP1 PUSH2 0x60 PUSH1 0x0 CODECOPY PUSH1 0x0 RETURN INVALID PUSH1 0x80 PUSH1 0x40 MSTORE PUSH1 0x4 CALLDATASIZE LT PUSH2 0x4A JUMPI PUSH1 0x0 CALLDATALOAD PUSH1 0xE0 SHR DUP1 PUSH4 0x481C6A75 EQ PUSH2 0x4F JUMPI DUP1 PUSH4 0x5D495AEA EQ PUSH2 0x7A JUMPI DUP1 PUSH4 0x5EC01E4D EQ PUSH2 0x91 JUMPI DUP1 PUSH4 0xE97DCB62 EQ PUSH2 0xBC JUMPI DUP1 PUSH4 0xF71D96CB EQ PUSH2 0xC6 JUMPI JUMPDEST PUSH1 0x0 DUP1 REVERT JUMPDEST CALLVALUE DUP1 ISZERO PUSH2 0x5B JUMPI PUSH1 0x0 DUP1 REVERT JUMPDEST POP PUSH2 0x64 PUSH2 0x103 JUMP JUMPDEST PUSH1 0x40 MLOAD PUSH2 0x71 SWAP2 SWAP1 PUSH2 0x486 JUMP JUMPDEST PUSH1 0x40 MLOAD DUP1 SWAP2 SUB SWAP1 RETURN JUMPDEST CALLVALUE DUP1 ISZERO PUSH2 0x86 JUMPI PUSH1 0x0 DUP1 REVERT JUMPDEST POP PUSH2 0x8F PUSH2 0x127 JUMP JUMPDEST STOP JUMPDEST CALLVALUE DUP1 ISZERO PUSH2 0x9D JUMPI PUSH1 0x0 DUP1 REVERT JUMPDEST POP PUSH2 0xA6 PUSH2 0x295 JUMP JUMPDEST PUSH1 0x40 MLOAD PUSH2 0xB3 SWAP2 SWAP1 PUSH2 0x4BA JUMP JUMPDEST PUSH1 0x40 MLOAD DUP1 SWAP2 SUB SWAP1 RETURN JUMPDEST PUSH2 0xC4 PUSH2 0x2E5 JUMP JUMPDEST STOP JUMPDEST CALLVALUE DUP1 ISZERO PUSH2 0xD2 JUMPI PUSH1 0x0 DUP1 REVERT JUMPDEST POP PUSH2 0xED PUSH1 0x4 DUP1 CALLDATASIZE SUB DUP2 ADD SWAP1 PUSH2 0xE8 SWAP2 SWAP1 PUSH2 0x506 JUMP JUMPDEST PUSH2 0x35F JUMP JUMPDEST PUSH1 0x40 MLOAD PUSH2 0xFA SWAP2 SWAP1 PUSH2 0x554 JUMP JUMPDEST PUSH1 0x40 MLOAD DUP1 SWAP2 SUB SWAP1 RETURN JUMPDEST PUSH1 0x0 DUP1 SLOAD SWAP1 PUSH2 0x100 EXP SWAP1 DIV PUSH20 0xFFFFFFFFFFFFFFFFFFFFFFFFFFFFFFFFFFFFFFFF AND DUP2 JUMP JUMPDEST PUSH1 0x0 DUP1 SLOAD SWAP1 PUSH2 0x100 EXP SWAP1 DIV PUSH20 0xFFFFFFFFFFFFFFFFFFFFFFFFFFFFFFFFFFFFFFFF AND PUSH20 0xFFFFFFFFFFFFFFFFFFFFFFFFFFFFFFFFFFFFFFFF AND CALLER PUSH20 0xFFFFFFFFFFFFFFFFFFFFFFFFFFFFFFFFFFFFFFFF AND EQ PUSH2 0x17F JUMPI PUSH1 0x0 DUP1 REVERT JUMPDEST PUSH1 0x0 PUSH1 0x1 DUP1 SLOAD SWAP1 POP GT PUSH2 0x191 JUMPI PUSH1 0x0 DUP1 REVERT JUMPDEST PUSH1 0x0 PUSH1 0x1 DUP1 SLOAD SWAP1 POP PUSH2 0x1A1 PUSH2 0x295 JUMP JUMPDEST PUSH2 0x1AB SWAP2 SWAP1 PUSH2 0x59E JUMP JUMPDEST SWAP1 POP PUSH1 0x1 DUP2 DUP2 SLOAD DUP2 LT PUSH2 0x1C1 JUMPI PUSH2 0x1C0 PUSH2 0x5CF JUMP JUMPDEST JUMPDEST SWAP1 PUSH1 0x0 MSTORE PUSH1 0x20 PUSH1 0x0 KECCAK256 ADD PUSH1 0x0 SWAP1 SLOAD SWAP1 PUSH2 0x100 EXP SWAP1 DIV PUSH20 0xFFFFFFFFFFFFFFFFFFFFFFFFFFFFFFFFFFFFFFFF AND PUSH20 0xFFFFFFFFFFFFFFFFFFFFFFFFFFFFFFFFFFFFFFFF AND PUSH2 0x8FC SELFBALANCE SWAP1 DUP2 ISZERO MUL SWAP1 PUSH1 0x40 MLOAD PUSH1 0x0 PUSH1 0x40 MLOAD DUP1 DUP4 SUB DUP2 DUP6 DUP9 DUP9 CALL SWAP4 POP POP POP POP ISZERO DUP1 ISZERO PUSH2 0x231 JUMPI RETURNDATASIZE PUSH1 0x0 DUP1 RETURNDATACOPY RETURNDATASIZE PUSH1 0x0 REVERT JUMPDEST POP PUSH1 0x0 PUSH8 0xFFFFFFFFFFFFFFFF DUP2 GT ISZERO PUSH2 0x24D JUMPI PUSH2 0x24C PUSH2 0x5FE JUMP JUMPDEST JUMPDEST PUSH1 0x40 MLOAD SWAP1 DUP1 DUP3 MSTORE DUP1 PUSH1 0x20 MUL PUSH1 0x20 ADD DUP3 ADD PUSH1 0x40 MSTORE DUP1 ISZERO PUSH2 0x27B JUMPI DUP2 PUSH1 0x20 ADD PUSH1 0x20 DUP3 MUL DUP1 CALLDATASIZE DUP4 CALLDATACOPY DUP1 DUP3 ADD SWAP2 POP POP SWAP1 POP JUMPDEST POP PUSH1 0x1 SWAP1 DUP1 MLOAD SWAP1 PUSH1 0x20 ADD SWAP1 PUSH2 0x291 SWAP3 SWAP2 SWAP1 PUSH2 0x39E JUMP JUMPDEST POP POP JUMP JUMPDEST PUSH1 0x0 DUP1 PUSH1 0x1 NUMBER PUSH2 0x2A5 SWAP2 SWAP1 PUSH2 0x65C JUMP JUMPDEST SWAP1 POP PUSH1 0x0 DUP2 BLOCKHASH SWAP1 POP DUP1 PUSH1 0x1 TIMESTAMP PREVRANDAO PUSH1 0x40 MLOAD PUSH1 0x20 ADD PUSH2 0x2C5 SWAP5 SWAP4 SWAP3 SWAP2 SWAP1 PUSH2 0x7FA JUMP JUMPDEST PUSH1 0x40 MLOAD PUSH1 0x20 DUP2 DUP4 SUB SUB DUP2 MSTORE SWAP1 PUSH1 0x40 MSTORE DUP1 MLOAD SWAP1 PUSH1 0x20 ADD KECCAK256 PUSH1 0x0 SHR SWAP3 POP POP POP SWAP1 JUMP JUMPDEST PUSH8 0x16345785D8A0000 CALLVALUE LT ISZERO PUSH2 0x2FA JUMPI PUSH1 0x0 DUP1 REVERT JUMPDEST PUSH1 0x1 CALLER SWAP1 DUP1 PUSH1 0x1 DUP2 SLOAD ADD DUP1 DUP3 SSTORE DUP1 SWAP2 POP POP PUSH1 0x1 SWAP1 SUB SWAP1 PUSH1 0x0 MSTORE PUSH1 0x20 PUSH1 0x0 KECCAK256 ADD PUSH1 0x0 SWAP1 SWAP2 SWAP1 SWAP2 SWAP1 SWAP2 PUSH2 0x100 EXP DUP2 SLOAD DUP2 PUSH20 0xFFFFFFFFFFFFFFFFFFFFFFFFFFFFFFFFFFFFFFFF MUL NOT AND SWAP1 DUP4 PUSH20 0xFFFFFFFFFFFFFFFFFFFFFFFFFFFFFFFFFFFFFFFF AND MUL OR SWAP1 SSTORE POP JUMP JUMPDEST PUSH1 0x1 DUP2 DUP2 SLOAD DUP2 LT PUSH2 0x36F JUMPI PUSH1 0x0 DUP1 REVERT JUMPDEST SWAP1 PUSH1 0x0 MSTORE PUSH1 0x20 PUSH1 0x0 KECCAK256 ADD PUSH1 0x0 SWAP2 POP SLOAD SWAP1 PUSH2 0x100 EXP SWAP1 DIV PUSH20 0xFFFFFFFFFFFFFFFFFFFFFFFFFFFFFFFFFFFFFFFF AND DUP2 JUMP JUMPDEST DUP3 DUP1 SLOAD DUP3 DUP3 SSTORE SWAP1 PUSH1 0x0 MSTORE PUSH1 0x20 PUSH1 0x0 KECCAK256 SWAP1 DUP2 ADD SWAP3 DUP3 ISZERO PUSH2 0x417 JUMPI SWAP2 PUSH1 0x20 MUL DUP3 ADD JUMPDEST DUP3 DUP2 GT ISZERO PUSH2 0x416 JUMPI DUP3 MLOAD DUP3 PUSH1 0x0 PUSH2 0x100 EXP DUP2 SLOAD DUP2 PUSH20 0xFFFFFFFFFFFFFFFFFFFFFFFFFFFFFFFFFFFFFFFF MUL NOT AND SWAP1 DUP4 PUSH20 0xFFFFFFFFFFFFFFFFFFFFFFFFFFFFFFFFFFFFFFFF AND MUL OR SWAP1 SSTORE POP SWAP2 PUSH1 0x20 ADD SWAP2 SWAP1 PUSH1 0x1 ADD SWAP1 PUSH2 0x3BE JUMP JUMPDEST JUMPDEST POP SWAP1 POP PUSH2 0x424 SWAP2 SWAP1 PUSH2 0x428 JUMP JUMPDEST POP SWAP1 JUMP JUMPDEST JUMPDEST DUP1 DUP3 GT ISZERO PUSH2 0x441 JUMPI PUSH1 0x0 DUP2 PUSH1 0x0 SWAP1 SSTORE POP PUSH1 0x1 ADD PUSH2 0x429 JUMP JUMPDEST POP SWAP1 JUMP JUMPDEST PUSH1 0x0 PUSH20 0xFFFFFFFFFFFFFFFFFFFFFFFFFFFFFFFFFFFFFFFF DUP3 AND SWAP1 POP SWAP2 SWAP1 POP JUMP JUMPDEST PUSH1 0x0 PUSH2 0x470 DUP3 PUSH2 0x445 JUMP JUMPDEST SWAP1 POP SWAP2 SWAP1 POP JUMP JUMPDEST PUSH2 0x480 DUP2 PUSH2 0x465 JUMP JUMPDEST DUP3 MSTORE POP POP JUMP JUMPDEST PUSH1 0x0 PUSH1 0x20 DUP3 ADD SWAP1 POP PUSH2 0x49B PUSH1 0x0 DUP4 ADD DUP5 PUSH2 0x477 JUMP JUMPDEST SWAP3 SWAP2 POP POP JUMP JUMPDEST PUSH1 0x0 DUP2 SWAP1 POP SWAP2 SWAP1 POP JUMP JUMPDEST PUSH2 0x4B4 DUP2 PUSH2 0x4A1 JUMP JUMPDEST DUP3 MSTORE POP POP JUMP JUMPDEST PUSH1 0x0 PUSH1 0x20 DUP3 ADD SWAP1 POP PUSH2 0x4CF PUSH1 0x0 DUP4 ADD DUP5 PUSH2 0x4AB JUMP JUMPDEST SWAP3 SWAP2 POP POP JUMP JUMPDEST PUSH1 0x0 DUP1 REVERT JUMPDEST PUSH2 0x4E3 DUP2 PUSH2 0x4A1 JUMP JUMPDEST DUP2 EQ PUSH2 0x4EE JUMPI PUSH1 0x0 DUP1 REVERT JUMPDEST POP JUMP JUMPDEST PUSH1 0x0 DUP2 CALLDATALOAD SWAP1 POP PUSH2 0x500 DUP2 PUSH2 0x4DA JUMP JUMPDEST SWAP3 SWAP2 POP POP JUMP JUMPDEST PUSH1 0x0 PUSH1 0x20 DUP3 DUP5 SUB SLT ISZERO PUSH2 0x51C JUMPI PUSH2 0x51B PUSH2 0x4D5 JUMP JUMPDEST JUMPDEST PUSH1 0x0 PUSH2 0x52A DUP5 DUP3 DUP6 ADD PUSH2 0x4F1 JUMP JUMPDEST SWAP2 POP POP SWAP3 SWAP2 POP POP JUMP JUMPDEST PUSH1 0x0 PUSH2 0x53E DUP3 PUSH2 0x445 JUMP JUMPDEST SWAP1 POP SWAP2 SWAP1 POP JUMP JUMPDEST PUSH2 0x54E DUP2 PUSH2 0x533 JUMP JUMPDEST DUP3 MSTORE POP POP JUMP JUMPDEST PUSH1 0x0 PUSH1 0x20 DUP3 ADD SWAP1 POP PUSH2 0x569 PUSH1 0x0 DUP4 ADD DUP5 PUSH2 0x545 JUMP JUMPDEST SWAP3 SWAP2 POP POP JUMP JUMPDEST PUSH32 0x4E487B7100000000000000000000000000000000000000000000000000000000 PUSH1 0x0 MSTORE PUSH1 0x12 PUSH1 0x4 MSTORE PUSH1 0x24 PUSH1 0x0 REVERT JUMPDEST PUSH1 0x0 PUSH2 0x5A9 DUP3 PUSH2 0x4A1 JUMP JUMPDEST SWAP2 POP PUSH2 0x5B4 DUP4 PUSH2 0x4A1 JUMP JUMPDEST SWAP3 POP DUP3 PUSH2 0x5C4 JUMPI PUSH2 0x5C3 PUSH2 0x56F JUMP JUMPDEST JUMPDEST DUP3 DUP3 MOD SWAP1 POP SWAP3 SWAP2 POP POP JUMP JUMPDEST PUSH32 0x4E487B7100000000000000000000000000000000000000000000000000000000 PUSH1 0x0 MSTORE PUSH1 0x32 PUSH1 0x4 MSTORE PUSH1 0x24 PUSH1 0x0 REVERT JUMPDEST PUSH32 0x4E487B7100000000000000000000000000000000000000000000000000000000 PUSH1 0x0 MSTORE PUSH1 0x41 PUSH1 0x4 MSTORE PUSH1 0x24 PUSH1 0x0 REVERT JUMPDEST PUSH32 0x4E487B7100000000000000000000000000000000000000000000000000000000 PUSH1 0x0 MSTORE PUSH1 0x11 PUSH1 0x4 MSTORE PUSH1 0x24 PUSH1 0x0 REVERT JUMPDEST PUSH1 0x0 PUSH2 0x667 DUP3 PUSH2 0x4A1 JUMP JUMPDEST SWAP2 POP PUSH2 0x672 DUP4 PUSH2 0x4A1 JUMP JUMPDEST SWAP3 POP DUP3 DUP3 SUB SWAP1 POP DUP2 DUP2 GT ISZERO PUSH2 0x68A JUMPI PUSH2 0x689 PUSH2 0x62D JUMP JUMPDEST JUMPDEST SWAP3 SWAP2 POP POP JUMP JUMPDEST PUSH1 0x0 DUP2 SWAP1 POP SWAP2 SWAP1 POP JUMP JUMPDEST PUSH1 0x0 DUP2 SWAP1 POP SWAP2 SWAP1 POP JUMP JUMPDEST PUSH2 0x6B5 PUSH2 0x6B0 DUP3 PUSH2 0x690 JUMP JUMPDEST PUSH2 0x69A JUMP JUMPDEST DUP3 MSTORE POP POP JUMP JUMPDEST PUSH1 0x0 DUP2 SLOAD SWAP1 POP SWAP2 SWAP1 POP JUMP JUMPDEST PUSH1 0x0 DUP2 SWAP1 POP SWAP3 SWAP2 POP POP JUMP JUMPDEST PUSH1 0x0 DUP2 SWAP1 POP DUP2 PUSH1 0x0 MSTORE PUSH1 0x20 PUSH1 0x0 KECCAK256 SWAP1 POP SWAP2 SWAP1 POP JUMP JUMPDEST PUSH2 0x6EF DUP2 PUSH2 0x533 JUMP JUMPDEST DUP3 MSTORE POP POP JUMP JUMPDEST PUSH1 0x0 PUSH2 0x701 DUP4 DUP4 PUSH2 0x6E6 JUMP JUMPDEST PUSH1 0x20 DUP4 ADD SWAP1 POP SWAP3 SWAP2 POP POP JUMP JUMPDEST PUSH1 0x0 DUP2 PUSH1 0x0 SHR SWAP1 POP SWAP2 SWAP1 POP JUMP JUMPDEST PUSH1 0x0 PUSH20 0xFFFFFFFFFFFFFFFFFFFFFFFFFFFFFFFFFFFFFFFF DUP3 AND SWAP1 POP SWAP2 SWAP1 POP JUMP JUMPDEST PUSH1 0x0 PUSH2 0x74D PUSH2 0x748 DUP4 PUSH2 0x70D JUMP JUMPDEST PUSH2 0x71A JUMP JUMPDEST SWAP1 POP SWAP2 SWAP1 POP JUMP JUMPDEST PUSH1 0x0 PUSH2 0x760 DUP3 SLOAD PUSH2 0x73A JUMP JUMPDEST SWAP1 POP SWAP2 SWAP1 POP JUMP JUMPDEST PUSH1 0x0 PUSH1 0x1 DUP3 ADD SWAP1 POP SWAP2 SWAP1 POP JUMP JUMPDEST PUSH1 0x0 PUSH2 0x77F DUP3 PUSH2 0x6BB JUMP JUMPDEST PUSH2 0x789 DUP2 DUP6 PUSH2 0x6C6 JUMP JUMPDEST SWAP4 POP PUSH2 0x794 DUP4 PUSH2 0x6D1 JUMP JUMPDEST DUP1 PUSH1 0x0 JUMPDEST DUP4 DUP2 LT ISZERO PUSH2 0x7CC JUMPI PUSH2 0x7A9 DUP3 PUSH2 0x754 JUMP JUMPDEST PUSH2 0x7B3 DUP9 DUP3 PUSH2 0x6F5 JUMP JUMPDEST SWAP8 POP PUSH2 0x7BE DUP4 PUSH2 0x767 JUMP JUMPDEST SWAP3 POP POP PUSH1 0x1 DUP2 ADD SWAP1 POP PUSH2 0x798 JUMP JUMPDEST POP DUP6 SWAP4 POP POP POP POP SWAP3 SWAP2 POP POP JUMP JUMPDEST PUSH1 0x0 DUP2 SWAP1 POP SWAP2 SWAP1 POP JUMP JUMPDEST PUSH2 0x7F4 PUSH2 0x7EF DUP3 PUSH2 0x4A1 JUMP JUMPDEST PUSH2 0x7D9 JUMP JUMPDEST DUP3 MSTORE POP POP JUMP JUMPDEST PUSH1 0x0 PUSH2 0x806 DUP3 DUP8 PUSH2 0x6A4 JUMP JUMPDEST PUSH1 0x20 DUP3 ADD SWAP2 POP PUSH2 0x816 DUP3 DUP7 PUSH2 0x774 JUMP JUMPDEST SWAP2 POP PUSH2 0x822 DUP3 DUP6 PUSH2 0x7E3 JUMP JUMPDEST PUSH1 0x20 DUP3 ADD SWAP2 POP PUSH2 0x832 DUP3 DUP5 PUSH2 0x7E3 JUMP JUMPDEST PUSH1 0x20 DUP3 ADD SWAP2 POP DUP2 SWAP1 POP SWAP6 SWAP5 POP POP POP POP POP JUMP INVALID LOG2 PUSH5 0x6970667358 0x22 SLT KECCAK256 DUP3 PUSH7 0x534B4095ACB17F SELFBALANCE CALLER 0xDD DUP9 CALLDATACOPY 0xBE DUP4 PUSH5 0xF20CF5519D PUSH13 0x299A3DEF48EA44445864736F6C PUSH4 0x43000812 STOP CALLER "
				},
				"gasEstimates": {
					"creation": {
						"codeDepositCost": "434000",
						"executionCost": "24734",
						"totalCost": "458734"
					},
					"external": {
						"enter()": "48767",
						"manager()": "2489",
						"pickWinner()": "infinite",
						"players(uint256)": "5022",
						"random()": "infinite"
					}
				},
				"methodIdentifiers": {
					"enter()": "e97dcb62",
					"manager()": "481c6a75",
					"pickWinner()": "5d495aea",
					"players(uint256)": "f71d96cb",
					"random()": "5ec01e4d"
				}
			},
			"storageLayout": {
				"storage": [
					{
						"astId": 3,
						"contract": "contracts/lottery.sol:Lottery",
						"label": "manager",
						"offset": 0,
						"slot": "0",
						"type": "t_address"
					},
					{
						"astId": 6,
						"contract": "contracts/lottery.sol:Lottery",
						"label": "players",
						"offset": 0,
						"slot": "1",
						"type": "t_array(t_address_payable)dyn_storage"
					}
				],
				"types": {
					"t_address": {
						"encoding": "inplace",
						"label": "address",
						"numberOfBytes": "20"
					},
					"t_address_payable": {
						"encoding": "inplace",
						"label": "address payable",
						"numberOfBytes": "20"
					},
					"t_array(t_address_payable)dyn_storage": {
						"base": "t_address_payable",
						"encoding": "dynamic_array",
						"label": "address payable[]",
						"numberOfBytes": "32"
					}
				}
			},
			"userdoc": {
				"kind": "user",
				"methods": {},
				"version": 1
			}
		}
	}
}